{
  "contractName": "ThreatIntelligence",
  "abi": [
    {
      "inputs": [],
      "stateMutability": "nonpayable",
      "type": "constructor"
    },
    {
      "anonymous": false,
      "inputs": [
        {
          "indexed": false,
          "internalType": "string",
          "name": "message",
          "type": "string"
        }
      ],
      "name": "Debug",
      "type": "event"
    },
    {
      "anonymous": false,
      "inputs": [
        {
          "indexed": true,
          "internalType": "address",
          "name": "submitter",
          "type": "address"
        },
        {
          "indexed": false,
          "internalType": "string",
          "name": "ip",
          "type": "string"
        },
        {
          "indexed": false,
          "internalType": "string",
          "name": "hash",
          "type": "string"
        },
        {
          "indexed": false,
          "internalType": "string",
          "name": "domain",
          "type": "string"
        }
      ],
      "name": "ThreatLogged",
      "type": "event"
    },
    {
      "inputs": [
        {
          "internalType": "uint256",
          "name": "",
          "type": "uint256"
        }
      ],
      "name": "threats",
      "outputs": [
        {
          "internalType": "string",
          "name": "ip",
          "type": "string"
        },
        {
          "internalType": "string",
          "name": "hash",
          "type": "string"
        },
        {
          "internalType": "string",
          "name": "domain",
          "type": "string"
        },
        {
          "internalType": "uint256",
          "name": "timestamp",
          "type": "uint256"
        },
        {
          "internalType": "address",
          "name": "submitter",
          "type": "address"
        }
      ],
      "stateMutability": "view",
      "type": "function",
      "constant": true
    },
    {
      "inputs": [
        {
          "internalType": "uint256[2]",
          "name": "a",
          "type": "uint256[2]"
        },
        {
          "internalType": "uint256[2][2]",
          "name": "b",
          "type": "uint256[2][2]"
        },
        {
          "internalType": "uint256[2]",
          "name": "c",
          "type": "uint256[2]"
        },
        {
          "internalType": "uint256[1]",
          "name": "input",
          "type": "uint256[1]"
        }
      ],
      "name": "verifyTx",
      "outputs": [
        {
          "internalType": "bool",
          "name": "",
          "type": "bool"
        }
      ],
      "stateMutability": "pure",
      "type": "function",
      "constant": true
    },
    {
      "inputs": [
        {
          "internalType": "string",
          "name": "_ip",
          "type": "string"
        },
        {
          "internalType": "string",
          "name": "_hash",
          "type": "string"
        },
        {
          "internalType": "string",
          "name": "_domain",
          "type": "string"
        },
        {
          "internalType": "uint256[2]",
          "name": "a",
          "type": "uint256[2]"
        },
        {
          "internalType": "uint256[2][2]",
          "name": "b",
          "type": "uint256[2][2]"
        },
        {
          "internalType": "uint256[2]",
          "name": "c",
          "type": "uint256[2]"
        },
        {
          "internalType": "uint256[1]",
          "name": "input",
          "type": "uint256[1]"
        }
      ],
      "name": "submitThreat",
      "outputs": [],
      "stateMutability": "nonpayable",
      "type": "function"
    },
    {
      "inputs": [],
      "name": "getAllThreats",
      "outputs": [
        {
          "components": [
            {
              "internalType": "string",
              "name": "ip",
              "type": "string"
            },
            {
              "internalType": "string",
              "name": "hash",
              "type": "string"
            },
            {
              "internalType": "string",
              "name": "domain",
              "type": "string"
            },
            {
              "internalType": "uint256",
              "name": "timestamp",
              "type": "uint256"
            },
            {
              "internalType": "address",
              "name": "submitter",
              "type": "address"
            }
          ],
          "internalType": "struct ThreatIntelligence.Threat[]",
          "name": "",
          "type": "tuple[]"
        }
      ],
      "stateMutability": "view",
      "type": "function",
      "constant": true
    }
  ],
  "bytecode": "0x608060405234801561001057600080fd5b507f7cdb51e9dbbc205231228146c3246e7f914aa6d4a33170e43ecc8e3593481d1a60405161003e906100b1565b60405180910390a16100e2565b60006100586025836100d1565b91507f546872656174496e74656c6c6967656e636520636f6e7472616374206465706c60008301527f6f796564210000000000000000000000000000000000000000000000000000006020830152604082019050919050565b600060208201905081810360008301526100ca8161004b565b9050919050565b600082825260208201905092915050565b6113f4806100f16000396000f3fe608060405234801561001057600080fd5b506004361061004c5760003560e01c806313b2e2661461005157806351dc17421461006d5780637d6ca572146100a1578063dd129313146100bf575b600080fd5b61006b60048036038101906100669190610c56565b6100ef565b005b61008760048036038101906100829190610d3f565b610311565b60405161009895949392919061107b565b60405180910390f35b6100a961050f565b6040516100b69190610ff2565b60405180910390f35b6100d960048036038101906100d49190610bf1565b610784565b6040516100e69190611014565b60405180910390f35b7f7cdb51e9dbbc205231228146c3246e7f914aa6d4a33170e43ecc8e3593481d1a60405161011c90611123565b60405180910390a161013084848484610784565b61016f576040517f08c379a000000000000000000000000000000000000000000000000000000000815260040161016690611103565b60405180910390fd5b7f7cdb51e9dbbc205231228146c3246e7f914aa6d4a33170e43ecc8e3593481d1a60405161019c906110e3565b60405180910390a160006040518060a001604052808981526020018881526020018781526020014281526020013373ffffffffffffffffffffffffffffffffffffffff1681525090806001815401808255809150506001900390600052602060002090600502016000909190919091506000820151816000019080519060200190610228929190610933565b506020820151816001019080519060200190610245929190610933565b506040820151816002019080519060200190610262929190610933565b506060820151816003015560808201518160040160006101000a81548173ffffffffffffffffffffffffffffffffffffffff021916908373ffffffffffffffffffffffffffffffffffffffff16021790555050503373ffffffffffffffffffffffffffffffffffffffff167f8479279473ad9da04b0b8f42908135aa87232ed1084df3d69022d5aa59ba655f8888886040516103009392919061102f565b60405180910390a250505050505050565b6000818154811061032157600080fd5b906000526020600020906005020160009150905080600001805461034490611306565b80601f016020809104026020016040519081016040528092919081815260200182805461037090611306565b80156103bd5780601f10610392576101008083540402835291602001916103bd565b820191906000526020600020905b8154815290600101906020018083116103a057829003601f168201915b5050505050908060010180546103d290611306565b80601f01602080910402602001604051908101604052809291908181526020018280546103fe90611306565b801561044b5780601f106104205761010080835404028352916020019161044b565b820191906000526020600020905b81548152906001019060200180831161042e57829003601f168201915b50505050509080600201805461046090611306565b80601f016020809104026020016040519081016040528092919081815260200182805461048c90611306565b80156104d95780601f106104ae576101008083540402835291602001916104d9565b820191906000526020600020905b8154815290600101906020018083116104bc57829003601f168201915b5050505050908060030154908060040160009054906101000a900473ffffffffffffffffffffffffffffffffffffffff16905085565b60606000805480602002602001604051908101604052809291908181526020016000905b8282101561077b57838290600052602060002090600502016040518060a001604052908160008201805461056690611306565b80601f016020809104026020016040519081016040528092919081815260200182805461059290611306565b80156105df5780601f106105b4576101008083540402835291602001916105df565b820191906000526020600020905b8154815290600101906020018083116105c257829003601f168201915b505050505081526020016001820180546105f890611306565b80601f016020809104026020016040519081016040528092919081815260200182805461062490611306565b80156106715780601f1061064657610100808354040283529160200191610671565b820191906000526020600020905b81548152906001019060200180831161065457829003601f168201915b5050505050815260200160028201805461068a90611306565b80601f01602080910402602001604051908101604052809291908181526020018280546106b690611306565b80156107035780601f106106d857610100808354040283529160200191610703565b820191906000526020600020905b8154815290600101906020018083116106e657829003601f168201915b50505050508152602001600382015481526020016004820160009054906101000a900473ffffffffffffffffffffffffffffffffffffffff1673ffffffffffffffffffffffffffffffffffffffff1673ffffffffffffffffffffffffffffffffffffffff168152505081526020019060010190610533565b50505050905090565b6000600280141580610797575060028014155b806107a3575060028014155b806107af575060018014155b156107bd576000905061092b565b6000856000600281106107f9577f4e487b7100000000000000000000000000000000000000000000000000000000600052603260045260246000fd5b602002015114806108865750600084600060028110610841577f4e487b7100000000000000000000000000000000000000000000000000000000600052603260045260246000fd5b602002015160006002811061087f577f4e487b7100000000000000000000000000000000000000000000000000000000600052603260045260246000fd5b6020020151145b806108cf57506000836000600281106108c8577f4e487b7100000000000000000000000000000000000000000000000000000000600052603260045260246000fd5b6020020151145b806109185750600082600060018110610911577f4e487b7100000000000000000000000000000000000000000000000000000000600052603260045260246000fd5b6020020151145b15610926576000905061092b565b600190505b949350505050565b82805461093f90611306565b90600052602060002090601f01602090048101928261096157600085556109a8565b82601f1061097a57805160ff19168380011785556109a8565b828001600101855582156109a8579182015b828111156109a757825182559160200191906001019061098c565b5b5090506109b591906109b9565b5090565b5b808211156109d25760008160009055506001016109ba565b5090565b60006109e96109e484611174565b611143565b905080828560408602820111156109ff57600080fd5b60005b85811015610a2f5781610a158882610b8b565b845260208401935060408301925050600181019050610a02565b5050509392505050565b6000610a4c610a478461119a565b611143565b90508082856020860282011115610a6257600080fd5b60005b85811015610a925781610a788882610bdc565b845260208401935060208301925050600181019050610a65565b5050509392505050565b6000610aaf610aaa846111c0565b611143565b90508082856020860282011115610ac557600080fd5b60005b85811015610af55781610adb8882610bdc565b845260208401935060208301925050600181019050610ac8565b5050509392505050565b6000610b12610b0d846111e6565b611143565b905082815260208101848484011115610b2a57600080fd5b610b358482856112c4565b509392505050565b600082601f830112610b4e57600080fd5b6002610b5b8482856109d6565b91505092915050565b600082601f830112610b7557600080fd5b6001610b82848285610a39565b91505092915050565b600082601f830112610b9c57600080fd5b6002610ba9848285610a9c565b91505092915050565b600082601f830112610bc357600080fd5b8135610bd3848260208601610aff565b91505092915050565b600081359050610beb816113a7565b92915050565b6000806000806101208587031215610c0857600080fd5b6000610c1687828801610b8b565b9450506040610c2787828801610b3d565b93505060c0610c3887828801610b8b565b925050610100610c4a87828801610b64565b91505092959194509250565b6000806000806000806000610180888a031215610c7257600080fd5b600088013567ffffffffffffffff811115610c8c57600080fd5b610c988a828b01610bb2565b975050602088013567ffffffffffffffff811115610cb557600080fd5b610cc18a828b01610bb2565b965050604088013567ffffffffffffffff811115610cde57600080fd5b610cea8a828b01610bb2565b9550506060610cfb8a828b01610b8b565b94505060a0610d0c8a828b01610b3d565b935050610120610d1e8a828b01610b8b565b925050610160610d308a828b01610b64565b91505092959891949750929550565b600060208284031215610d5157600080fd5b6000610d5f84828501610bdc565b91505092915050565b6000610d748383610f50565b905092915050565b610d858161127c565b82525050565b610d948161127c565b82525050565b6000610da582611226565b610daf8185611249565b935083602082028501610dc185611216565b8060005b85811015610dfd5784840389528151610dde8582610d68565b9450610de98361123c565b925060208a01995050600181019050610dc5565b50829750879550505050505092915050565b610e188161128e565b82525050565b6000610e2982611231565b610e33818561125a565b9350610e438185602086016112d3565b610e4c81611396565b840191505092915050565b6000610e6282611231565b610e6c818561126b565b9350610e7c8185602086016112d3565b610e8581611396565b840191505092915050565b6000610e9d601e8361126b565b91507f50726f6f66207665726966696564207375636365737366756c6c792e2e2e00006000830152602082019050919050565b6000610edd60118361126b565b91507f496e76616c6964205a4b502070726f6f660000000000000000000000000000006000830152602082019050919050565b6000610f1d601e8361126b565b91507f5374617274696e672070726f6f6620766572696669636174696f6e2e2e2e00006000830152602082019050919050565b600060a0830160008301518482036000860152610f6d8282610e1e565b91505060208301518482036020860152610f878282610e1e565b91505060408301518482036040860152610fa18282610e1e565b9150506060830151610fb66060860182610fd4565b506080830151610fc96080860182610d7c565b508091505092915050565b610fdd816112ba565b82525050565b610fec816112ba565b82525050565b6000602082019050818103600083015261100c8184610d9a565b905092915050565b60006020820190506110296000830184610e0f565b92915050565b600060608201905081810360008301526110498186610e57565b9050818103602083015261105d8185610e57565b905081810360408301526110718184610e57565b9050949350505050565b600060a08201905081810360008301526110958188610e57565b905081810360208301526110a98187610e57565b905081810360408301526110bd8186610e57565b90506110cc6060830185610fe3565b6110d96080830184610d8b565b9695505050505050565b600060208201905081810360008301526110fc81610e90565b9050919050565b6000602082019050818103600083015261111c81610ed0565b9050919050565b6000602082019050818103600083015261113c81610f10565b9050919050565b6000604051905081810181811067ffffffffffffffff8211171561116a57611169611367565b5b8060405250919050565b600067ffffffffffffffff82111561118f5761118e611367565b5b602082029050919050565b600067ffffffffffffffff8211156111b5576111b4611367565b5b602082029050919050565b600067ffffffffffffffff8211156111db576111da611367565b5b602082029050919050565b600067ffffffffffffffff82111561120157611200611367565b5b601f19601f8301169050602081019050919050565b6000819050602082019050919050565b600081519050919050565b600081519050919050565b6000602082019050919050565b600082825260208201905092915050565b600082825260208201905092915050565b600082825260208201905092915050565b60006112878261129a565b9050919050565b60008115159050919050565b600073ffffffffffffffffffffffffffffffffffffffff82169050919050565b6000819050919050565b82818337600083830152505050565b60005b838110156112f15780820151818401526020810190506112d6565b83811115611300576000848401525b50505050565b6000600282049050600182168061131e57607f821691505b6020821081141561133257611331611338565b5b50919050565b7f4e487b7100000000000000000000000000000000000000000000000000000000600052602260045260246000fd5b7f4e487b7100000000000000000000000000000000000000000000000000000000600052604160045260246000fd5b6000601f19601f8301169050919050565b6113b0816112ba565b81146113bb57600080fd5b5056fea26469706673582212201bdeca8dbb3422a86eadc98d82108d1604182c137dcfe7c782cf347ea98bd6ce64736f6c63430008000033",
  "immutableReferences": {},
  "source": "// SPDX-License-Identifier: MIT\npragma solidity ^0.8.0;\n\nimport \"./Verifier.sol\";\n\ncontract ThreatIntelligence is Verifier {\n    struct Threat {\n        string ip;\n        string hash;\n        string domain;\n        uint256 timestamp;\n        address submitter;\n    }\n\n    Threat[] public threats;\n\n    event ThreatLogged(address indexed submitter, string ip, string hash, string domain);\n    event Debug(string message); // Add Debug event explicitly\n\n    constructor() {\n        emit Debug(\"ThreatIntelligence contract deployed!\");\n    }\n\n    function submitThreat(\n        string memory _ip,\n        string memory _hash,\n        string memory _domain,\n        uint[2] memory a,\n        uint[2][2] memory b,\n        uint[2] memory c,\n        uint[1] memory input\n    ) public {\n        emit Debug(\"Starting proof verification...\");\n        \n        require(verifyTx(a, b, c, input), \"Invalid ZKP proof\");\n        emit Debug(\"Proof verified successfully...\");\n        \n        threats.push(Threat(_ip, _hash, _domain, block.timestamp, msg.sender));\n        emit ThreatLogged(msg.sender, _ip, _hash, _domain);\n    }\n\n    function getAllThreats() public view returns (Threat[] memory) {\n        return threats;\n    }\n   \n\n}\n",
  "sourcePath": "/home/harish/Desktop/cyber-threat-platform/blockchain/contracts/ThreatIntelligence.sol",
  "compiler": {
    "name": "solc",
    "version": "0.8.0+commit.c7dfd78e.Emscripten.clang"
  },
  "schemaVersion": "3.4.16",
  "updatedAt": "2025-03-07T06:36:56.162Z",
  "networkType": "ethereum",
  "devdoc": {
    "kind": "dev",
    "methods": {},
    "version": 1
  },
  "userdoc": {
    "kind": "user",
    "methods": {},
    "version": 1
  }
}