{
  "contractName": "Verifier",
  "abi": [
    {
      "inputs": [
        {
          "internalType": "uint256[2]",
          "name": "a",
          "type": "uint256[2]"
        },
        {
          "internalType": "uint256[2][2]",
          "name": "b",
          "type": "uint256[2][2]"
        },
        {
          "internalType": "uint256[2]",
          "name": "c",
          "type": "uint256[2]"
        },
        {
          "internalType": "uint256[1]",
          "name": "input",
          "type": "uint256[1]"
        }
      ],
      "name": "verifyTx",
      "outputs": [
        {
          "internalType": "bool",
          "name": "",
          "type": "bool"
        }
      ],
      "stateMutability": "pure",
      "type": "function",
      "constant": true
    }
  ],
  "bytecode": "0x608060405234801561001057600080fd5b50610586806100206000396000f3fe608060405234801561001057600080fd5b506004361061002b5760003560e01c8063dd12931314610030575b600080fd5b61004a600480360381019061004591906103c2565b610060565b6040516100579190610436565b60405180910390f35b6000600280141580610073575060028014155b8061007f575060028014155b8061008b575060018014155b156100995760009050610207565b6000856000600281106100d5577f4e487b7100000000000000000000000000000000000000000000000000000000600052603260045260246000fd5b60200201511480610162575060008460006002811061011d577f4e487b7100000000000000000000000000000000000000000000000000000000600052603260045260246000fd5b602002015160006002811061015b577f4e487b7100000000000000000000000000000000000000000000000000000000600052603260045260246000fd5b6020020151145b806101ab57506000836000600281106101a4577f4e487b7100000000000000000000000000000000000000000000000000000000600052603260045260246000fd5b6020020151145b806101f457506000826000600181106101ed577f4e487b7100000000000000000000000000000000000000000000000000000000600052603260045260246000fd5b6020020151145b156102025760009050610207565b600190505b949350505050565b600061022261021d84610482565b610451565b9050808285604086028201111561023857600080fd5b60005b85811015610268578161024e8882610386565b84526020840193506040830192505060018101905061023b565b5050509392505050565b6000610285610280846104a8565b610451565b9050808285602086028201111561029b57600080fd5b60005b858110156102cb57816102b188826103ad565b84526020840193506020830192505060018101905061029e565b5050509392505050565b60006102e86102e3846104ce565b610451565b905080828560208602820111156102fe57600080fd5b60005b8581101561032e578161031488826103ad565b845260208401935060208301925050600181019050610301565b5050509392505050565b600082601f83011261034957600080fd5b600261035684828561020f565b91505092915050565b600082601f83011261037057600080fd5b600161037d848285610272565b91505092915050565b600082601f83011261039757600080fd5b60026103a48482856102d5565b91505092915050565b6000813590506103bc81610539565b92915050565b60008060008061012085870312156103d957600080fd5b60006103e787828801610386565b94505060406103f887828801610338565b93505060c061040987828801610386565b92505061010061041b8782880161035f565b91505092959194509250565b610430816104f4565b82525050565b600060208201905061044b6000830184610427565b92915050565b6000604051905081810181811067ffffffffffffffff821117156104785761047761050a565b5b8060405250919050565b600067ffffffffffffffff82111561049d5761049c61050a565b5b602082029050919050565b600067ffffffffffffffff8211156104c3576104c261050a565b5b602082029050919050565b600067ffffffffffffffff8211156104e9576104e861050a565b5b602082029050919050565b60008115159050919050565b6000819050919050565b7f4e487b7100000000000000000000000000000000000000000000000000000000600052604160045260246000fd5b61054281610500565b811461054d57600080fd5b5056fea2646970667358221220195b91c922213fbbe25254f96525c86124e1f073e111ff3812f9399218bfabc964736f6c63430008000033",
  "immutableReferences": {},
  "source": "// SPDX-License-Identifier: MIT\npragma solidity ^0.8.0;\n\ncontract Verifier {\n    function verifyTx(\n        uint[2] memory a,\n        uint[2][2] memory b,\n        uint[2] memory c,\n        uint[1] memory input\n    ) public pure returns (bool) { // Use pure since it does not modify state\n        // Ensure valid input values\n        if (a.length != 2 || b.length != 2 || c.length != 2 || input.length != 1) {\n            return false;\n        }\n        \n        // Check for zero values\n        if (a[0] == 0 || b[0][0] == 0 || c[0] == 0 || input[0] == 0) {\n            return false;\n        }\n\n        return true;\n    }\n}\n",
  "sourcePath": "/home/harish/Desktop/cyber-threat-platform/blockchain/contracts/Verifier.sol",
  "compiler": {
    "name": "solc",
    "version": "0.8.0+commit.c7dfd78e.Emscripten.clang"
  },
  "schemaVersion": "3.4.16",
  "updatedAt": "2025-03-07T05:16:54.398Z",
  "networkType": "ethereum",
  "devdoc": {
    "kind": "dev",
    "methods": {},
    "version": 1
  },
  "userdoc": {
    "kind": "user",
    "methods": {},
    "version": 1
  }
}